{
  "_format": "hh-sol-artifact-1",
  "contractName": "Carpool",
  "sourceName": "contracts/Carpool.sol",
  "abi": [
    {
      "inputs": [
        {
          "internalType": "address",
          "name": "_tokenAddress",
          "type": "address"
        }
      ],
      "stateMutability": "nonpayable",
      "type": "constructor"
    },
    {
      "anonymous": false,
      "inputs": [
        {
          "indexed": false,
          "internalType": "uint256",
          "name": "rideIndex",
          "type": "uint256"
        },
        {
          "indexed": false,
          "internalType": "address",
          "name": "driver",
          "type": "address"
        },
        {
          "indexed": false,
          "internalType": "uint256",
          "name": "availableSeats",
          "type": "uint256"
        },
        {
          "indexed": false,
          "internalType": "uint256",
          "name": "tokenCost",
          "type": "uint256"
        }
      ],
      "name": "RideOffered",
      "type": "event"
    },
    {
      "anonymous": false,
      "inputs": [
        {
          "indexed": false,
          "internalType": "uint256",
          "name": "rideIndex",
          "type": "uint256"
        },
        {
          "indexed": false,
          "internalType": "address",
          "name": "passenger",
          "type": "address"
        }
      ],
      "name": "RideRequested",
      "type": "event"
    },
    {
      "inputs": [
        {
          "internalType": "uint256",
          "name": "_availableSeats",
          "type": "uint256"
        },
        {
          "internalType": "uint256",
          "name": "_tokenCost",
          "type": "uint256"
        }
      ],
      "name": "offerRide",
      "outputs": [],
      "stateMutability": "nonpayable",
      "type": "function"
    },
    {
      "inputs": [],
      "name": "owner",
      "outputs": [
        {
          "internalType": "address",
          "name": "",
          "type": "address"
        }
      ],
      "stateMutability": "view",
      "type": "function"
    },
    {
      "inputs": [
        {
          "internalType": "uint256",
          "name": "_rideIndex",
          "type": "uint256"
        }
      ],
      "name": "requestRide",
      "outputs": [],
      "stateMutability": "nonpayable",
      "type": "function"
    },
    {
      "inputs": [
        {
          "internalType": "uint256",
          "name": "",
          "type": "uint256"
        }
      ],
      "name": "rides",
      "outputs": [
        {
          "internalType": "address",
          "name": "driver",
          "type": "address"
        },
        {
          "internalType": "uint256",
          "name": "availableSeats",
          "type": "uint256"
        },
        {
          "internalType": "uint256",
          "name": "tokenCost",
          "type": "uint256"
        }
      ],
      "stateMutability": "view",
      "type": "function"
    },
    {
      "inputs": [],
      "name": "tokenAddress",
      "outputs": [
        {
          "internalType": "address",
          "name": "",
          "type": "address"
        }
      ],
      "stateMutability": "view",
      "type": "function"
    }
  ],
  "bytecode": "0x608060405234801561001057600080fd5b50604051610d07380380610d078339818101604052810190610032919061011c565b806000806101000a81548173ffffffffffffffffffffffffffffffffffffffff021916908373ffffffffffffffffffffffffffffffffffffffff16021790555033600160006101000a81548173ffffffffffffffffffffffffffffffffffffffff021916908373ffffffffffffffffffffffffffffffffffffffff16021790555050610149565b600080fd5b600073ffffffffffffffffffffffffffffffffffffffff82169050919050565b60006100e9826100be565b9050919050565b6100f9816100de565b811461010457600080fd5b50565b600081519050610116816100f0565b92915050565b600060208284031215610132576101316100b9565b5b600061014084828501610107565b91505092915050565b610baf806101586000396000f3fe608060405234801561001057600080fd5b50600436106100575760003560e01c80635205f1121461005c5780638da5cb5b1461008e5780639327b077146100ac578063944aa77d146100c85780639d76ea58146100e4575b600080fd5b6100766004803603810190610071919061060c565b610102565b60405161008593929190610689565b60405180910390f35b61009661015c565b6040516100a391906106c0565b60405180910390f35b6100c660048036038101906100c1919061060c565b610182565b005b6100e260048036038101906100dd91906106db565b61045b565b005b6100ec6105ad565b6040516100f991906106c0565b60405180910390f35b6002818154811061011257600080fd5b90600052602060002090600402016000915090508060000160009054906101000a900473ffffffffffffffffffffffffffffffffffffffff16908060010154908060020154905083565b600160009054906101000a900473ffffffffffffffffffffffffffffffffffffffff1681565b8060028054905081106101ca576040517f08c379a00000000000000000000000000000000000000000000000000000000081526004016101c190610778565b60405180910390fd5b6000600283815481106101e0576101df610798565b5b906000526020600020906004020190508060030160003373ffffffffffffffffffffffffffffffffffffffff1673ffffffffffffffffffffffffffffffffffffffff16815260200190815260200160002060009054906101000a900460ff161561027f576040517f08c379a000000000000000000000000000000000000000000000000000000000815260040161027690610813565b60405180910390fd5b60008160010154116102c6576040517f08c379a00000000000000000000000000000000000000000000000000000000081526004016102bd9061087f565b60405180910390fd5b60008054906101000a900473ffffffffffffffffffffffffffffffffffffffff1673ffffffffffffffffffffffffffffffffffffffff166323b872dd333084600201546040518463ffffffff1660e01b81526004016103279392919061089f565b6020604051808303816000875af1158015610346573d6000803e3d6000fd5b505050506040513d601f19601f8201168201806040525081019061036a919061090e565b6103a9576040517f08c379a00000000000000000000000000000000000000000000000000000000081526004016103a090610987565b60405180910390fd5b60018160030160003373ffffffffffffffffffffffffffffffffffffffff1673ffffffffffffffffffffffffffffffffffffffff16815260200190815260200160002060006101000a81548160ff021916908315150217905550806001016000815480929190610418906109d6565b91905055507f05905006801f0f5aa49ad146b87e58364efa4e447c0bf1b3efc428a77c147920833360405161044e9291906109ff565b60405180910390a1505050565b6000821161049e576040517f08c379a000000000000000000000000000000000000000000000000000000000815260040161049590610a74565b60405180910390fd5b600081116104e1576040517f08c379a00000000000000000000000000000000000000000000000000000000081526004016104d890610ae0565b60405180910390fd5b600060026001816001815401808255809150500390600052602060002090600402019050338160000160006101000a81548173ffffffffffffffffffffffffffffffffffffffff021916908373ffffffffffffffffffffffffffffffffffffffff1602179055508281600101819055508181600201819055507f1f7578bff006529d9758cd0ee4a2b91052a2704126ae05a157b95db3ccd44e5a600160028054905061058d9190610b00565b3385856040516105a09493929190610b34565b60405180910390a1505050565b60008054906101000a900473ffffffffffffffffffffffffffffffffffffffff1681565b600080fd5b6000819050919050565b6105e9816105d6565b81146105f457600080fd5b50565b600081359050610606816105e0565b92915050565b600060208284031215610622576106216105d1565b5b6000610630848285016105f7565b91505092915050565b600073ffffffffffffffffffffffffffffffffffffffff82169050919050565b600061066482610639565b9050919050565b61067481610659565b82525050565b610683816105d6565b82525050565b600060608201905061069e600083018661066b565b6106ab602083018561067a565b6106b8604083018461067a565b949350505050565b60006020820190506106d5600083018461066b565b92915050565b600080604083850312156106f2576106f16105d1565b5b6000610700858286016105f7565b9250506020610711858286016105f7565b9150509250929050565b600082825260208201905092915050565b7f5269646520646f6573206e6f7420657869737400000000000000000000000000600082015250565b600061076260138361071b565b915061076d8261072c565b602082019050919050565b6000602082019050818103600083015261079181610755565b9050919050565b7f4e487b7100000000000000000000000000000000000000000000000000000000600052603260045260246000fd5b7f416c726561647920612070617373656e67657200000000000000000000000000600082015250565b60006107fd60138361071b565b9150610808826107c7565b602082019050919050565b6000602082019050818103600083015261082c816107f0565b9050919050565b7f4e6f20617661696c61626c652073656174730000000000000000000000000000600082015250565b600061086960128361071b565b915061087482610833565b602082019050919050565b600060208201905081810360008301526108988161085c565b9050919050565b60006060820190506108b4600083018661066b565b6108c1602083018561066b565b6108ce604083018461067a565b949350505050565b60008115159050919050565b6108eb816108d6565b81146108f657600080fd5b50565b600081519050610908816108e2565b92915050565b600060208284031215610924576109236105d1565b5b6000610932848285016108f9565b91505092915050565b7f546f6b656e207472616e73666572206661696c65640000000000000000000000600082015250565b600061097160158361071b565b915061097c8261093b565b602082019050919050565b600060208201905081810360008301526109a081610964565b9050919050565b7f4e487b7100000000000000000000000000000000000000000000000000000000600052601160045260246000fd5b60006109e1826105d6565b9150600082036109f4576109f36109a7565b5b600182039050919050565b6000604082019050610a14600083018561067a565b610a21602083018461066b565b9392505050565b7f496e76616c6964206e756d626572206f66207365617473000000000000000000600082015250565b6000610a5e60178361071b565b9150610a6982610a28565b602082019050919050565b60006020820190508181036000830152610a8d81610a51565b9050919050565b7f496e76616c696420746f6b656e20636f73740000000000000000000000000000600082015250565b6000610aca60128361071b565b9150610ad582610a94565b602082019050919050565b60006020820190508181036000830152610af981610abd565b9050919050565b6000610b0b826105d6565b9150610b16836105d6565b9250828203905081811115610b2e57610b2d6109a7565b5b92915050565b6000608082019050610b49600083018761067a565b610b56602083018661066b565b610b63604083018561067a565b610b70606083018461067a565b9594505050505056fea2646970667358221220d1695cebe72b2f2f9a087f84e0dc3f0bf1432157cecda13d68c85059a809732b64736f6c63430008140033",
  "linkReferences": {},
  "deployedLinkReferences": {}
}