{
  "_format": "hh-sol-artifact-1",
  "contractName": "Carpool",
  "sourceName": "contracts/Carpool.sol",
  "abi": [
    {
      "inputs": [
        {
          "internalType": "address",
          "name": "_tokenAddress",
          "type": "address"
        }
      ],
      "stateMutability": "nonpayable",
      "type": "constructor"
    },
    {
      "anonymous": false,
      "inputs": [
        {
          "indexed": false,
          "internalType": "uint256",
          "name": "rideIndex",
          "type": "uint256"
        }
      ],
      "name": "RideCompleted",
      "type": "event"
    },
    {
      "anonymous": false,
      "inputs": [
        {
          "indexed": false,
          "internalType": "uint256",
          "name": "rideIndex",
          "type": "uint256"
        },
        {
          "indexed": false,
          "internalType": "address",
          "name": "driver",
          "type": "address"
        },
        {
          "indexed": false,
          "internalType": "uint256",
          "name": "availableSeats",
          "type": "uint256"
        },
        {
          "indexed": false,
          "internalType": "uint256",
          "name": "tokenCost",
          "type": "uint256"
        },
        {
          "indexed": false,
          "internalType": "uint256",
          "name": "registrationDeadline",
          "type": "uint256"
        }
      ],
      "name": "RideOffered",
      "type": "event"
    },
    {
      "anonymous": false,
      "inputs": [
        {
          "indexed": false,
          "internalType": "uint256",
          "name": "rideIndex",
          "type": "uint256"
        },
        {
          "indexed": false,
          "internalType": "address",
          "name": "passenger",
          "type": "address"
        }
      ],
      "name": "RideRegistered",
      "type": "event"
    },
    {
      "inputs": [],
      "name": "addTokens",
      "outputs": [],
      "stateMutability": "nonpayable",
      "type": "function"
    },
    {
      "inputs": [
        {
          "internalType": "uint256",
          "name": "_rideIndex",
          "type": "uint256"
        }
      ],
      "name": "completeRide",
      "outputs": [],
      "stateMutability": "nonpayable",
      "type": "function"
    },
    {
      "inputs": [],
      "name": "getAllRides",
      "outputs": [
        {
          "components": [
            {
              "internalType": "address",
              "name": "driver",
              "type": "address"
            },
            {
              "internalType": "uint256",
              "name": "availableSeats",
              "type": "uint256"
            },
            {
              "internalType": "uint256",
              "name": "tokenCost",
              "type": "uint256"
            },
            {
              "internalType": "uint256",
              "name": "registrationDeadline",
              "type": "uint256"
            },
            {
              "internalType": "address[]",
              "name": "passengers",
              "type": "address[]"
            },
            {
              "internalType": "string",
              "name": "destination",
              "type": "string"
            },
            {
              "internalType": "string",
              "name": "departure",
              "type": "string"
            },
            {
              "internalType": "bool",
              "name": "complete",
              "type": "bool"
            }
          ],
          "internalType": "struct Carpool.FlattenedRide[]",
          "name": "",
          "type": "tuple[]"
        }
      ],
      "stateMutability": "view",
      "type": "function"
    },
    {
      "inputs": [
        {
          "internalType": "address",
          "name": "user",
          "type": "address"
        }
      ],
      "name": "getBalance",
      "outputs": [
        {
          "internalType": "uint256",
          "name": "",
          "type": "uint256"
        }
      ],
      "stateMutability": "view",
      "type": "function"
    },
    {
      "inputs": [],
      "name": "myToken",
      "outputs": [
        {
          "internalType": "contract CarpoolToken",
          "name": "",
          "type": "address"
        }
      ],
      "stateMutability": "view",
      "type": "function"
    },
    {
      "inputs": [
        {
          "internalType": "string",
          "name": "_departure",
          "type": "string"
        },
        {
          "internalType": "string",
          "name": "_destination",
          "type": "string"
        },
        {
          "internalType": "uint256",
          "name": "_availableSeats",
          "type": "uint256"
        },
        {
          "internalType": "uint256",
          "name": "_tokenCost",
          "type": "uint256"
        },
        {
          "internalType": "uint256",
          "name": "_registrationDeadline",
          "type": "uint256"
        }
      ],
      "name": "offerRide",
      "outputs": [],
      "stateMutability": "nonpayable",
      "type": "function"
    },
    {
      "inputs": [],
      "name": "owner",
      "outputs": [
        {
          "internalType": "address",
          "name": "",
          "type": "address"
        }
      ],
      "stateMutability": "view",
      "type": "function"
    },
    {
      "inputs": [
        {
          "internalType": "uint256",
          "name": "_rideIndex",
          "type": "uint256"
        }
      ],
      "name": "registerForRide",
      "outputs": [],
      "stateMutability": "nonpayable",
      "type": "function"
    },
    {
      "inputs": [
        {
          "internalType": "uint256",
          "name": "",
          "type": "uint256"
        }
      ],
      "name": "rides",
      "outputs": [
        {
          "internalType": "address",
          "name": "driver",
          "type": "address"
        },
        {
          "internalType": "uint256",
          "name": "availableSeats",
          "type": "uint256"
        },
        {
          "internalType": "uint256",
          "name": "tokenCost",
          "type": "uint256"
        },
        {
          "internalType": "uint256",
          "name": "registrationDeadline",
          "type": "uint256"
        },
        {
          "internalType": "string",
          "name": "destination",
          "type": "string"
        },
        {
          "internalType": "string",
          "name": "departure",
          "type": "string"
        },
        {
          "internalType": "bool",
          "name": "complete",
          "type": "bool"
        }
      ],
      "stateMutability": "view",
      "type": "function"
    },
    {
      "inputs": [],
      "name": "tokenAddress",
      "outputs": [
        {
          "internalType": "address",
          "name": "",
          "type": "address"
        }
      ],
      "stateMutability": "view",
      "type": "function"
    }
  ],
  "bytecode": "0x60806040523480156200001157600080fd5b506040516200202c3803806200202c83398181016040528101906200003791906200012a565b80600360006101000a81548173ffffffffffffffffffffffffffffffffffffffff021916908373ffffffffffffffffffffffffffffffffffffffff16021790555033600160006101000a81548173ffffffffffffffffffffffffffffffffffffffff021916908373ffffffffffffffffffffffffffffffffffffffff160217905550506200015c565b600080fd5b600073ffffffffffffffffffffffffffffffffffffffff82169050919050565b6000620000f282620000c5565b9050919050565b6200010481620000e5565b81146200011057600080fd5b50565b6000815190506200012481620000f9565b92915050565b600060208284031215620001435762000142620000c0565b5b6000620001538482850162000113565b91505092915050565b611ec0806200016c6000396000f3fe608060405234801561001057600080fd5b506004361061009e5760003560e01c8063b8fcf93711610066578063b8fcf9371461014f578063c416dd0b1461016d578063d5f4f0b314610189578063e10454ad14610193578063f8b2cb4f146101af5761009e565b80635205f112146100a3578063787660c3146100d95780638da5cb5b146100f75780639d76ea5814610115578063afc1fa8d14610133575b600080fd5b6100bd60048036038101906100b89190610ef5565b6101df565b6040516100d0979695949392919061101d565b60405180910390f35b6100e161036e565b6040516100ee9190611340565b60405180910390f35b6100ff610751565b60405161010c9190611362565b60405180910390f35b61011d610777565b60405161012a9190611362565b60405180910390f35b61014d600480360381019061014891906114b2565b61079b565b005b61015761093c565b60405161016491906115c4565b60405180910390f35b61018760048036038101906101829190610ef5565b610962565b005b610191610a70565b005b6101ad60048036038101906101a89190610ef5565b610b03565b005b6101c960048036038101906101c4919061160b565b610da9565b6040516101d69190611638565b60405180910390f35b600281815481106101ef57600080fd5b90600052602060002090600802016000915090508060000160009054906101000a900473ffffffffffffffffffffffffffffffffffffffff169080600101549080600201549080600301549080600501805461024a90611682565b80601f016020809104026020016040519081016040528092919081815260200182805461027690611682565b80156102c35780601f10610298576101008083540402835291602001916102c3565b820191906000526020600020905b8154815290600101906020018083116102a657829003601f168201915b5050505050908060060180546102d890611682565b80601f016020809104026020016040519081016040528092919081815260200182805461030490611682565b80156103515780601f1061032657610100808354040283529160200191610351565b820191906000526020600020905b81548152906001019060200180831161033457829003601f168201915b5050505050908060070160009054906101000a900460ff16905087565b6060600060028054905067ffffffffffffffff81111561039157610390611387565b5b6040519080825280602002602001820160405280156103ca57816020015b6103b7610e4e565b8152602001906001900390816103af5790505b50905060005b60028054905081101561074957604051806101000160405280600283815481106103fd576103fc6116b3565b5b906000526020600020906008020160000160009054906101000a900473ffffffffffffffffffffffffffffffffffffffff1673ffffffffffffffffffffffffffffffffffffffff1681526020016002838154811061045e5761045d6116b3565b5b906000526020600020906008020160010154815260200160028381548110610489576104886116b3565b5b9060005260206000209060080201600201548152602001600283815481106104b4576104b36116b3565b5b9060005260206000209060080201600301548152602001600283815481106104df576104de6116b3565b5b906000526020600020906008020160040180548060200260200160405190810160405280929190818152602001828054801561057057602002820191906000526020600020905b8160009054906101000a900473ffffffffffffffffffffffffffffffffffffffff1673ffffffffffffffffffffffffffffffffffffffff1681526020019060010190808311610526575b505050505081526020016002838154811061058e5761058d6116b3565b5b906000526020600020906008020160050180546105aa90611682565b80601f01602080910402602001604051908101604052809291908181526020018280546105d690611682565b80156106235780601f106105f857610100808354040283529160200191610623565b820191906000526020600020905b81548152906001019060200180831161060657829003601f168201915b5050505050815260200160028381548110610641576106406116b3565b5b9060005260206000209060080201600601805461065d90611682565b80601f016020809104026020016040519081016040528092919081815260200182805461068990611682565b80156106d65780601f106106ab576101008083540402835291602001916106d6565b820191906000526020600020905b8154815290600101906020018083116106b957829003601f168201915b50505050508152602001600283815481106106f4576106f36116b3565b5b906000526020600020906008020160070160009054906101000a900460ff16151581525082828151811061072b5761072a6116b3565b5b6020026020010181905250808061074190611711565b9150506103d0565b508091505090565b600160009054906101000a900473ffffffffffffffffffffffffffffffffffffffff1681565b60008054906101000a900473ffffffffffffffffffffffffffffffffffffffff1681565b600083116107de576040517f08c379a00000000000000000000000000000000000000000000000000000000081526004016107d5906117a5565b60405180910390fd5b60008211610821576040517f08c379a000000000000000000000000000000000000000000000000000000000815260040161081890611811565b60405180910390fd5b600060026001816001815401808255809150500390600052602060002090600802019050338160000160006101000a81548173ffffffffffffffffffffffffffffffffffffffff021916908373ffffffffffffffffffffffffffffffffffffffff160217905550838160010181905550828160020181905550858160060190816108ab91906119d3565b50848160050190816108bd91906119d3565b5081816003018190555060008160070160006101000a81548160ff0219169083151502179055507f923af1cac49df247656fc9bc4dadb3c544c35b5e3f3753e32c507e86f30a21f560016002805490506109179190611aa5565b3386868660405161092c959493929190611ad9565b60405180910390a1505050505050565b600360009054906101000a900473ffffffffffffffffffffffffffffffffffffffff1681565b8060028054905081106109aa576040517f08c379a00000000000000000000000000000000000000000000000000000000081526004016109a190611b78565b60405180910390fd5b6000600283815481106109c0576109bf6116b3565b5b906000526020600020906008020190508060030154421015610a17576040517f08c379a0000000000000000000000000000000000000000000000000000000008152600401610a0e90611c0a565b60405180910390fd5b60018160070160006101000a81548160ff0219169083151502179055507f63e5b4bf8bc6c9cf867e6cc4d53f654c1f0365d975100e04129de6383f8c4b2383604051610a639190611638565b60405180910390a1505050565b600360009054906101000a900473ffffffffffffffffffffffffffffffffffffffff1673ffffffffffffffffffffffffffffffffffffffff166340c10f19336103e86040518363ffffffff1660e01b8152600401610acf929190611c65565b600060405180830381600087803b158015610ae957600080fd5b505af1158015610afd573d6000803e3d6000fd5b50505050565b806002805490508110610b4b576040517f08c379a0000000000000000000000000000000000000000000000000000000008152600401610b4290611b78565b60405180910390fd5b8160028181548110610b6057610b5f6116b3565b5b9060005260206000209060080201600301544210610bb3576040517f08c379a0000000000000000000000000000000000000000000000000000000008152600401610baa90611cda565b60405180910390fd5b600060028481548110610bc957610bc86116b3565b5b906000526020600020906008020190506000816001015411610c20576040517f08c379a0000000000000000000000000000000000000000000000000000000008152600401610c1790611d46565b60405180910390fd5b600360009054906101000a900473ffffffffffffffffffffffffffffffffffffffff1673ffffffffffffffffffffffffffffffffffffffff1663a64b6e5f338360000160009054906101000a900473ffffffffffffffffffffffffffffffffffffffff1684600201546040518463ffffffff1660e01b8152600401610ca793929190611d66565b6020604051808303816000875af1158015610cc6573d6000803e3d6000fd5b505050506040513d601f19601f82011682018060405250810190610cea9190611dc9565b5080600401339080600181540180825580915050600190039060005260206000200160009091909190916101000a81548173ffffffffffffffffffffffffffffffffffffffff021916908373ffffffffffffffffffffffffffffffffffffffff160217905550806001016000815480929190610d6590611df6565b91905055507f46eafb1fe7154109649afb91a5cf58095e471d36e8b82465829d2b15a787f42a8433604051610d9b929190611e1f565b60405180910390a150505050565b6000600360009054906101000a900473ffffffffffffffffffffffffffffffffffffffff1673ffffffffffffffffffffffffffffffffffffffff166370a08231836040518263ffffffff1660e01b8152600401610e069190611362565b602060405180830381865afa158015610e23573d6000803e3d6000fd5b505050506040513d601f19601f82011682018060405250810190610e479190611e5d565b9050919050565b604051806101000160405280600073ffffffffffffffffffffffffffffffffffffffff1681526020016000815260200160008152602001600081526020016060815260200160608152602001606081526020016000151581525090565b6000604051905090565b600080fd5b600080fd5b6000819050919050565b610ed281610ebf565b8114610edd57600080fd5b50565b600081359050610eef81610ec9565b92915050565b600060208284031215610f0b57610f0a610eb5565b5b6000610f1984828501610ee0565b91505092915050565b600073ffffffffffffffffffffffffffffffffffffffff82169050919050565b6000610f4d82610f22565b9050919050565b610f5d81610f42565b82525050565b610f6c81610ebf565b82525050565b600081519050919050565b600082825260208201905092915050565b60005b83811015610fac578082015181840152602081019050610f91565b60008484015250505050565b6000601f19601f8301169050919050565b6000610fd482610f72565b610fde8185610f7d565b9350610fee818560208601610f8e565b610ff781610fb8565b840191505092915050565b60008115159050919050565b61101781611002565b82525050565b600060e082019050611032600083018a610f54565b61103f6020830189610f63565b61104c6040830188610f63565b6110596060830187610f63565b818103608083015261106b8186610fc9565b905081810360a083015261107f8185610fc9565b905061108e60c083018461100e565b98975050505050505050565b600081519050919050565b600082825260208201905092915050565b6000819050602082019050919050565b6110cf81610f42565b82525050565b6110de81610ebf565b82525050565b600081519050919050565b600082825260208201905092915050565b6000819050602082019050919050565b600061111c83836110c6565b60208301905092915050565b6000602082019050919050565b6000611140826110e4565b61114a81856110ef565b935061115583611100565b8060005b8381101561118657815161116d8882611110565b975061117883611128565b925050600181019050611159565b5085935050505092915050565b600082825260208201905092915050565b60006111af82610f72565b6111b98185611193565b93506111c9818560208601610f8e565b6111d281610fb8565b840191505092915050565b6111e681611002565b82525050565b60006101008301600083015161120560008601826110c6565b50602083015161121860208601826110d5565b50604083015161122b60408601826110d5565b50606083015161123e60608601826110d5565b50608083015184820360808601526112568282611135565b91505060a083015184820360a086015261127082826111a4565b91505060c083015184820360c086015261128a82826111a4565b91505060e083015161129f60e08601826111dd565b508091505092915050565b60006112b683836111ec565b905092915050565b6000602082019050919050565b60006112d68261109a565b6112e081856110a5565b9350836020820285016112f2856110b6565b8060005b8581101561132e578484038952815161130f85826112aa565b945061131a836112be565b925060208a019950506001810190506112f6565b50829750879550505050505092915050565b6000602082019050818103600083015261135a81846112cb565b905092915050565b60006020820190506113776000830184610f54565b92915050565b600080fd5b600080fd5b7f4e487b7100000000000000000000000000000000000000000000000000000000600052604160045260246000fd5b6113bf82610fb8565b810181811067ffffffffffffffff821117156113de576113dd611387565b5b80604052505050565b60006113f1610eab565b90506113fd82826113b6565b919050565b600067ffffffffffffffff82111561141d5761141c611387565b5b61142682610fb8565b9050602081019050919050565b82818337600083830152505050565b600061145561145084611402565b6113e7565b90508281526020810184848401111561147157611470611382565b5b61147c848285611433565b509392505050565b600082601f8301126114995761149861137d565b5b81356114a9848260208601611442565b91505092915050565b600080600080600060a086880312156114ce576114cd610eb5565b5b600086013567ffffffffffffffff8111156114ec576114eb610eba565b5b6114f888828901611484565b955050602086013567ffffffffffffffff81111561151957611518610eba565b5b61152588828901611484565b945050604061153688828901610ee0565b935050606061154788828901610ee0565b925050608061155888828901610ee0565b9150509295509295909350565b6000819050919050565b600061158a61158561158084610f22565b611565565b610f22565b9050919050565b600061159c8261156f565b9050919050565b60006115ae82611591565b9050919050565b6115be816115a3565b82525050565b60006020820190506115d960008301846115b5565b92915050565b6115e881610f42565b81146115f357600080fd5b50565b600081359050611605816115df565b92915050565b60006020828403121561162157611620610eb5565b5b600061162f848285016115f6565b91505092915050565b600060208201905061164d6000830184610f63565b92915050565b7f4e487b7100000000000000000000000000000000000000000000000000000000600052602260045260246000fd5b6000600282049050600182168061169a57607f821691505b6020821081036116ad576116ac611653565b5b50919050565b7f4e487b7100000000000000000000000000000000000000000000000000000000600052603260045260246000fd5b7f4e487b7100000000000000000000000000000000000000000000000000000000600052601160045260246000fd5b600061171c82610ebf565b91507fffffffffffffffffffffffffffffffffffffffffffffffffffffffffffffffff820361174e5761174d6116e2565b5b600182019050919050565b7f496e76616c6964206e756d626572206f66207365617473000000000000000000600082015250565b600061178f601783610f7d565b915061179a82611759565b602082019050919050565b600060208201905081810360008301526117be81611782565b9050919050565b7f496e76616c696420746f6b656e20636f73740000000000000000000000000000600082015250565b60006117fb601283610f7d565b9150611806826117c5565b602082019050919050565b6000602082019050818103600083015261182a816117ee565b9050919050565b60008190508160005260206000209050919050565b60006020601f8301049050919050565b600082821b905092915050565b6000600883026118937fffffffffffffffffffffffffffffffffffffffffffffffffffffffffffffffff82611856565b61189d8683611856565b95508019841693508086168417925050509392505050565b60006118d06118cb6118c684610ebf565b611565565b610ebf565b9050919050565b6000819050919050565b6118ea836118b5565b6118fe6118f6826118d7565b848454611863565b825550505050565b600090565b611913611906565b61191e8184846118e1565b505050565b5b818110156119425761193760008261190b565b600181019050611924565b5050565b601f8211156119875761195881611831565b61196184611846565b81016020851015611970578190505b61198461197c85611846565b830182611923565b50505b505050565b600082821c905092915050565b60006119aa6000198460080261198c565b1980831691505092915050565b60006119c38383611999565b9150826002028217905092915050565b6119dc82610f72565b67ffffffffffffffff8111156119f5576119f4611387565b5b6119ff8254611682565b611a0a828285611946565b600060209050601f831160018114611a3d5760008415611a2b578287015190505b611a3585826119b7565b865550611a9d565b601f198416611a4b86611831565b60005b82811015611a7357848901518255600182019150602085019450602081019050611a4e565b86831015611a905784890151611a8c601f891682611999565b8355505b6001600288020188555050505b505050505050565b6000611ab082610ebf565b9150611abb83610ebf565b9250828203905081811115611ad357611ad26116e2565b5b92915050565b600060a082019050611aee6000830188610f63565b611afb6020830187610f54565b611b086040830186610f63565b611b156060830185610f63565b611b226080830184610f63565b9695505050505050565b7f5269646520646f6573206e6f7420657869737400000000000000000000000000600082015250565b6000611b62601383610f7d565b9150611b6d82611b2c565b602082019050919050565b60006020820190508181036000830152611b9181611b55565b9050919050565b7f526567697374726174696f6e20646561646c696e65206e6f742072656163686560008201527f6400000000000000000000000000000000000000000000000000000000000000602082015250565b6000611bf4602183610f7d565b9150611bff82611b98565b604082019050919050565b60006020820190508181036000830152611c2381611be7565b9050919050565b6000819050919050565b6000611c4f611c4a611c4584611c2a565b611565565b610ebf565b9050919050565b611c5f81611c34565b82525050565b6000604082019050611c7a6000830185610f54565b611c876020830184611c56565b9392505050565b7f526567697374726174696f6e20697320636c6f73656400000000000000000000600082015250565b6000611cc4601683610f7d565b9150611ccf82611c8e565b602082019050919050565b60006020820190508181036000830152611cf381611cb7565b9050919050565b7f4e6f20617661696c61626c652073656174730000000000000000000000000000600082015250565b6000611d30601283610f7d565b9150611d3b82611cfa565b602082019050919050565b60006020820190508181036000830152611d5f81611d23565b9050919050565b6000606082019050611d7b6000830186610f54565b611d886020830185610f54565b611d956040830184610f63565b949350505050565b611da681611002565b8114611db157600080fd5b50565b600081519050611dc381611d9d565b92915050565b600060208284031215611ddf57611dde610eb5565b5b6000611ded84828501611db4565b91505092915050565b6000611e0182610ebf565b915060008203611e1457611e136116e2565b5b600182039050919050565b6000604082019050611e346000830185610f63565b611e416020830184610f54565b9392505050565b600081519050611e5781610ec9565b92915050565b600060208284031215611e7357611e72610eb5565b5b6000611e8184828501611e48565b9150509291505056fea26469706673582212208b9b671a6959fb5a6e333429bc3625216aeab3f7df8c120eb44a36b70f26e10464736f6c63430008140033",
  "linkReferences": {},
  "deployedLinkReferences": {}
}